:100000000EC01EC01DC01CC01BC01AC019C018C025
:1000100017C016C015C014C013C012C011C01124DF
:100020001FBECFEDCDBF10E0A0E6B0E0EAEBF7E0F9
:1000300002C005900D92AC36B107D9F7B9D0BBC359
:10004000DFCF2FB7F8949AE0E8B3EE7FE8BB00006B
:100050000000000000000000E5E6F0E03197F1F755
:10006000E8B380FDE16080FFEE7FE8BB08948795F0
:100070009A9591F72FBF0895CF93DF93EC01899163
:10008000882311F0DEDFFBCFDF91CF910895019738
:1000900010F00000FCCF0895CF93C198B99A80EE7C
:1000A00091E0F5DFB9988CE390E0F1DFC6B384EA24
:1000B00091E0EDDF8C2F8270CF910895CF93C82F00
:1000C000C198B99A81E090E0E2DFC111B9988CE360
:1000D00090E0DDDFB998CF910895CF93C198B99A98
:1000E00081E090E0D4DFB9988EE090E0D0DFC6B335
:1000F0008DE290E0CCDFC1FB882780F9CF91089595
:10010000CF93DF93D9E0C0E0D15039F0E6DF879597
:1001100088278795C695C82BF7CF8C2FDF91CF9175
:100120000895CF93DF93D82FC9E0C15029F08D2FC8
:100130008170C4DFD695F9CFDF91CF9108950F93E9
:100140001F93CF93DF93182F092FA6DF8CECE9DFE5
:1001500084E4E7DFC2DF8823E9F39EDF8CECE1DF94
:100160008EEBDFDFCDDFD82FCBDFC82F95DF2D2F34
:1001700022952F708D2F8F7090E061E772E030D064
:100180009F938F93C770C295C07FC22B1F92CF934E
:1001900080E690E09F938F930F931F9332D08DB79B
:1001A000992708968DBFDF91CF911F910F910895E8
:1001B000CF93DF93CDB7DD27CA50CDBFC09AB89A91
:1001C000CE010196BCDFCE01019656DF2FEF89E606
:1001D00098E1215080409040E1F700C00000F0CF4E
:1001E0000024552704C0080E591F880F991F009737
:1001F00029F076956795B8F37105B9F7802D952F9D
:100200000895AEE0B0E0E6E0F1E0B6C20D891E89E7
:1002100086E08C831A8309838FEF9FE79E838D830B
:10022000AE01475E5F4F6F89788DCE01019608D091
:10023000EF81F885E00FF11F10822E96E4E0B3C243
:10024000ABE0B0E0E5E2F1E089C26C017B018A013C
:10025000FC0117821682838181FFC0C1CE01019605
:100260003C01F6019381F70193FD859193FF819104
:100270007F01882309F4AEC1853239F493FD85915D
:1002800093FF81917F01853221F4B60190E0C1D1C5
:10029000E8CF912C212C312CFFE1F315E0F08B32CB
:1002A00079F038F4803279F08332A9F4232D20617B
:1002B00010C08D3259F0803371F4232D216009C0B4
:1002C000832D8260382EE32DE46022C0F32DF86088
:1002D00025C0322E27C037FC2DC020ED280F2A3034
:1002E00088F436FE06C0892D6AE02FD2922E980E31
:1002F00019C0822D6AE029D2222E280E832D806219
:10030000382E10C08E3231F436FC64C1E32DE06427
:100310003E2E08C08C3621F4F32DF0683F2E02C02B
:10032000883641F4F70193FD859193FF81917F0118
:100330008111B2CF982F9F7D9554933028F40C5F94
:100340001F4F2FE329830DC0833631F0833771F0BF
:10035000833509F055C020C0F801808189830E5F84
:100360001F4F88248394912C530112C02801F2E07E
:100370004F0E511CF801A080B18036FE03C0692DDC
:1003800070E002C06FEF7FEFC50138D14C018201F0
:10039000F32DFF773F2E15C0280122E0420E511C9D
:1003A000F801A080B18036FE03C0692D70E002C064
:1003B0006FEF7FEFC50117D14C01F32DF0683F2E91
:1003C000820133FC19C0822D90E088169906A0F4B2
:1003D000B60180E290E01DD12A94F5CFF50137FCFB
:1003E000859137FE81915F01B60190E012D1211015
:1003F0002A9421E0821A91088114910479F7E1C0CE
:10040000843611F0893639F5F80137FE07C060816E
:100410007181828193810C5F1F4F08C0608171815F
:10042000072E000C880B990B0E5F1F4FF32DFF76E4
:100430003F2E97FF09C090958095709561957F4FED
:100440008F4F9F4FF0683F2E2AE030E0A3011DD16F
:10045000882E861844C0853731F4232D2F7EB22E86
:100460002AE030E025C0932D997FB92E8F36C1F058
:1004700018F4883579F0AEC0803719F0883721F04C
:10048000A9C0E92FE061BE2EB4FE0DC0FB2DF460C3
:10049000BF2E09C034FE0AC0292F2660B22E06C026
:1004A00028E030E005C020E130E002C020E132E089
:1004B000F801B7FE07C060817181828193810C5F72
:1004C0001F4F06C06081718180E090E00E5F1F4F7A
:1004D000A301DBD0882E8618FB2DFF773F2E36FE3A
:1004E0000DC0232D2E7FA22E891458F434FE0BC08C
:1004F00032FC09C0832D8E7EA82E05C0B82CA32CFB
:1005000003C0B82C01C0B92CA4FE0FC0FE01E80D39
:10051000F11D8081803321F49A2D997EA92E09C086
:10052000A2FE06C0B394B39404C08A2D867809F065
:10053000B394A3FC10C0A0FE06C0B21480F4280C33
:10054000922C9B180DC0B21458F4B60180E290E0D2
:1005500060D0B394F8CFB21418F42B1802C0982CC2
:10056000212CA4FE0FC0B60180E390E052D0A2FE81
:1005700016C0A1FC03C088E790E002C088E590E0C7
:10058000B6010CC08A2D867851F0A1FE02C08BE224
:1005900001C080E2A7FC8DE2B60190E03AD0891458
:1005A00030F4B60180E390E034D09A94F8CF8A9486
:1005B000F301E80DF11D8081B60190E02AD0811091
:1005C000F6CF222009F44DCEB60180E290E021D092
:1005D0002A94F7CFF6018681978102C08FEF9FEFB3
:1005E0002B96E2E1D2C0FC010590615070400110F1
:1005F000D8F7809590958E0F9F1F0895FC0161504C
:10060000704001900110D8F7809590958E0F9F1F34
:1006100008950F931F93CF93DF93FB01238121FD57
:1006200003C08FEF9FEF2CC022FF16C04681578179
:10063000248135814217530744F4A081B1819D0183
:100640002F5F3F4F318320838C93268137812F5F2B
:100650003F4F3783268314C08B01EC01FB010084DC
:10066000F185E02D0995892BE1F6D80116968D913B
:100670009C911797019617969C938E931697CE018F
:10068000DF91CF911F910F910895FA01AA27283089
:1006900061F1203191F1E8946F936E7F6E5F7F4F2F
:1006A0008F4F9F4FAF4FB1E040D0B4E03ED0670FC7
:1006B000781F891F9A1FA11D680F791F8A1F911D1E
:1006C000A11D6A0F711D811D911DA11D22D009F46C
:1006D00068943F91062E000C3019000C000C301964
:1006E000305D3193CEF6CF010895462F4770405DBF
:1006F0004193B3E00FD0C9F7F6CF462F4F70405D5E
:100700004A3318F0495D31FD4052419302D0A9F7B8
:10071000EACFB4E0A6959795879577956795BA95B2
:10072000C9F700976105710508959B01AC010A2E78
:1007300006945795479537952795BA95C9F7620F4F
:10074000731F841F951FA01D0895002480FD060EB1
:10075000660F11F08695D1F7802D08952F923F9264
:100760004F925F926F927F928F929F92AF92BF92C1
:10077000CF92DF92EF92FF920F931F93CF93DF936D
:10078000CDB7CA1BCDBFDD2709942A883988488890
:100790005F846E847D848C849B84AA84B984C8849D
:1007A000DF80EE80FD800C811B81AA81D981CE0F74
:0A07B000CDBFCA2F0895F894FFCFC3
:0C07BA00252B642E2530347520430000F0
:00000001FF
